:1000000029C000003AC0000038C0000036C000001F
:1000100034C0000032C0000030C000002EC000001C
:100020002CC000002AC0000028C0000026C000002C
:1000300024C0000022C0000020C000001EC000003C
:100040001CC000001AC0000018C0000016C000004C
:1000500014C0000011241FBECFE5D8E0DEBFCDBF25
:1000600010E0A0E6B0E0E8E1F1E002C005900D92FA
:10007000AA36B107D9F702D04DC0C2CFEF92FF9296
:100080000F931F93DF93CF93CDB7DEB72E970FB6A5
:10009000F894DEBF0FBECDBF8FEF81BB8ABBDE0100
:1000A0001596E0E6F0E08AE001900D928150E1F7CC
:1000B00080E8898380E48A8380E28B8380E18C837B
:1000C00020E030E07E010894E11CF11C8E010B5F02
:1000D0001F4F68EC70E0AE01415F5F4FF701E20F28
:1000E000F31F8081809582BBD8018C918BBB84ECFF
:1000F00099E0FB013197F1F70197D9F71196A41711
:10010000B50799F72F5F3F4F243031053CF320E0CE
:0801100030E0E4CFF894FFCFCA
:0A0118003F065B4F666D7D077F67B1
:00000001FF
