:1000000029C0000042C0000040C000003EC0000007
:100010003CC000003AC0000038C0000036C00000FC
:1000200034C0000032C0000030C000002EC000000C
:100030002CC000002AC0000028C0000026C000001C
:1000400024C0000022C0000020C000001EC000002C
:100050001CC0000011241FBECFE5D8E0DEBFCDBF1D
:1000600010E0A0E6B0E0EEE0FBE002C005900D92EB
:10007000A838B107D9F710E0A8E8B0E001C01D9298
:10008000A33BB107E1F72ED240C5BACF80FF02C033
:10009000C29A01C0C29881FF02C0C39A01C0C3982E
:1000A00082FF02C0C49A01C0C49883FF02C0C59AEF
:1000B0000895C59808951F93182FC19A82958F703F
:1000C000E5DFC198C19A812FE1DFC19885E88A9563
:1000D000F1F71F910895C098EECF1F93CF93DF9350
:1000E000BA9ABB9ABC9ABD9AB99AB89A80E395E736
:1000F0000197F1F7C098C19810E0C0E1D7E2C19A2A
:1001000083E0C4DFC198CE010197F1F71F5F133080
:10011000B1F7C19A82E0BADFC19880ED97E001970C
:10012000F1F788E2D8DF88E0D6DF81E0D4DF80EA2B
:100130009FE00197F1F786E0CEDF8CE0CCDFDF9126
:10014000CF911F910895C09AB6CFCF93DF93EC0162
:1001500002C02196F8DF88818823D9F7DF91CF91FB
:10016000089581E0B8DF80EA9FE00197F1F70895F4
:10017000CF92DF92EF92FF920F931F93DF93CF9373
:10018000CDB7DEB760970FB6F894DEBF0FBECDBF18
:100190007B018C01E6DF8DB79EB708970FB6F89408
:1001A0009EBF0FBE8DBFEDB7FEB731966E010894AE
:1001B000C11CD11CADB7BEB71296DC92CE9211977E
:1001C00080E690E093838283E482F582068317833E
:1001D000D6D18DB79EB708960FB6F8949EBF0FBEC6
:1001E0008DBFC601B2DF60960FB6F894DEBF0FBEBA
:1001F000CDBFCF91DF911F910F91FF90EF90DF90D6
:10020000CF900895982F8D3369F08D3259F0833453
:1002100049F08B3239F08F3229F080E09A3219F4AC
:1002200081E0089581E00895809199008B3251F02A
:100230008C3218F48A3229F511C08D3249F08F3290
:1002400001F516C08091A6009091A500890F0DC000
:100250008091A5009091A600891B07C08091A600FF
:100260009091A500899F802D112480938800089586
:100270006091A6008091A50090E070E047D1609366
:100280008800089580E197E228EC30E0F901319789
:10029000F1F70197D9F765DF83E690E056DF88E84C
:1002A00093E128EC30E0F9013197F1F70197D9F7A4
:1002B000E9E8F0E0119280E0E939F807D9F7E9E9D7
:1002C000F0E0119280E0E53AF807D9F7E5EAF0E0CE
:1002D000119280E0E03BF807D9F71092B20010923B
:1002E000B0001092B100109288003BCF609188005E
:1002F00070E080E090E03CCFAF92BF92CF92DF926F
:10030000EF92FF920F931F93DF93CF93CDB7DEB79A
:1003100060970FB6F894DEBF0FBECDBFFE013196D9
:1003200080E1DF011D928A95E9F78091B20099E89A
:10033000E92E90E0F92E00E0C82EDD24CE0CDF1C63
:100340005F0133C0F7011081812F5CDF882331F416
:10035000F501E00FF11D10830F5F24C08091B00004
:10036000E82FF0E0E756FF4F10838F5F8093B000D7
:100370001091B100C501DED0E12FF0E0EB55FF4F49
:10038000808380E090E0202F30E005C0F501E80F89
:10039000F91F1082019628173907C4F71F5F1093C1
:1003A000B10000E00894E11CF11CEC14FD0451F6CE
:1003B00060960FB6F894DEBF0FBECDBFCF91DF9130
:1003C0001F910F91FF90EF90DF90CF90BF90AF9073
:1003D0000895CF93DF9333D0C8ECD0E01AC08334B4
:1003E00011F450DF15C0882399F0E091B200F0E0DD
:1003F000E757FF4F8083A7DE8091B2008F5F809325
:10040000B20088EB9BE0FE013197F1F70197D9F735
:1004100016D08D3321F7E091B200F0E0E757FF4F9F
:10042000808391DE8091B2008F5F8093B200DF9174
:10043000CF91089580EF84BB8FEF85BB0895DF9344
:10044000CF93CDB7DEB760970FB6F894DEBF0FBE7F
:10045000CDBFDE011196E8E7F0E080E101900D925A
:100460008150E1F7E4E0F0E061E070E085B39B01EA
:100470000E2E02C0220F331F0A94E2F7922F90959E
:10048000982395BB40E050E083B390E0042E02C077
:10049000959587950A94E2F780FD0EC085B3282BC9
:1004A00025BB3497EE0FFF1FEE0FFF1FE40FF51F64
:1004B000EC0FFD1F81810DC04F5F5F4F4430510530
:1004C00019F785B3282B25BB3196E830F10571F675
:1004D00080E060960FB6F894DEBF0FBECDBFCF911F
:1004E000DF910895FADDA6DF82E790E02EDE80E15D
:1004F00097E228EC30E0F9013197F1F70197D9F74D
:1005000030DE67DFF9DE90DEF1DEFBCFAA1BBB1B1E
:1005100051E107C0AA1FBB1FA617B70710F0A61B03
:10052000B70B881F991F5A95A9F780959095BC0124
:10053000CD010895FC0188279927E8942191203264
:10054000E9F3293010F02E30C8F32B3239F02D3278
:1005500031F4689403C00BD0820F911D2191205378
:100560002A30C8F31EF4909581959F4F08957AE044
:10057000979F902D879F802D910D11240895AEE0B7
:10058000B0E0E4ECF2E098C20D891E8986E08C832D
:100590001A8309838FEF9FE79E838D839E01275ED9
:1005A0003F4FCE0101966F89788DA90109D02F8127
:1005B0003885020F131FF80110822E96E4E098C2CE
:1005C000ABE0B0E0E5EEF2E069C23C012B015A017C
:1005D000FC0117821682838181FD03C06FEF7FEFDC
:1005E000B9C19AE0892E1E010894211C311CF30127
:1005F0002381F20123FD859123FF81912F0188231F
:1006000009F4A5C1853239F423FD859123FF819139
:100610002F01853221F490E0B301B6D1E8CF982FB5
:10062000FF24EE249924FFE1FF15D0F09B3269F0FE
:100630009C3228F4903259F0933291F40EC09D32DE
:1006400049F0903369F441E024C052E0F52A84E097
:10065000F82A28C098E0F92A25C0E0E1FE2A22C045
:10066000F7FC29C0892F80538A3070F4F6FE05C04C
:10067000989C902C1124980E15C0E89CE02C112415
:10068000E80EF0E2FF2A0EC09E3229F4F6FC5FC1AC
:1006900040E4F42A07C09C3619F450E8F52A02C059
:1006A000983649F4F20123FD959123FF91912F0192
:1006B000992309F0B8CF892F8554833018F08052E0
:1006C000833038F444E050E0A40EB51E5FE3598354
:1006D0000FC0933631F0933779F0933509F052C05B
:1006E0001FC0F5018081898342E050E0A40EB51E51
:1006F000610101E010E011C0F501C080D180F6FC7D
:1007000003C06FEF7FEF02C0692D70E042E050E060
:10071000A40EB51EC6012DD18C015FE7F52213C0D2
:10072000F501C080D180F6FC03C06FEF7FEF02C0FF
:10073000692D70E042E050E0A40EB51EC6010ED156
:100740008C0150E8F52AF3FE06C018C080E290E064
:10075000B3011AD1EA948E2D90E008171907B0F36F
:100760000DC0F601F7FC8591F7FE81916F0190E0D5
:10077000B3010AD1E110EA940150104001151105AE
:1007800081F7E2C0943611F0993661F5F7FE08C0A2
:10079000F501208131814281538184E090E00AC0DB
:1007A000F501808191819C01442737FD4095542FAC
:1007B00082E090E0A80EB91E9FE6F92257FF09C01B
:1007C00050954095309521953F4F4F4F5F4FE0E852
:1007D000FE2ACA01B901A1012AE030E001D1D82ED8
:1007E000D2183FC0953729F41F2D1F7E2AE030E034
:1007F0001DC01F2D197F9F3661F0903720F498356A
:1008000009F0A5C00FC0903739F0983709F09FC0A4
:1008100004C028E030E00AC0106114FD146020E13B
:1008200030E004C014FD166020E132E017FF08C07C
:10083000F501608171818281938144E050E008C0BC
:10084000F50180819181BC0180E090E042E050E0C0
:10085000A40EB51EA101C4D0D82ED2188FE7F82E51
:10086000F122F6FE0BC05EEFF522D91438F4F4FE47
:1008700007C0F2FC05C08FEEF82202C01D2D01C09A
:10088000192DF4FE0DC0FE01ED0DF11D80818033A8
:1008900019F499EEF92208C01F5FF2FE05C003C0EB
:1008A0008F2D867809F01F5F0F2DF3FC13C0F0FE2B
:1008B0000EC01E1510F09D2C0AC09D2C9E0C911A86
:1008C0001E2D05C080E290E0B3015ED01F5F1E15B3
:1008D000C8F304C01E1510F4E11A01C0EE2404FF91
:1008E0000EC080E390E0B3014FD002FF1BC001FDBA
:1008F00003C088E790E00EC088E590E00BC0802F31
:10090000867881F001FF02C08BE201C080E2F7FC33
:100910008DE290E0B30138D005C080E390E0B301F0
:1009200033D09A94D914C8F3DA94F101ED0DF11D86
:10093000808190E0B30128D0DD20B1F705C080E2CE
:1009400090E0B30121D0EA94EE20C9F750CEF30134
:1009500066817781CB012B96E2E1BCC0FC0105905A
:10096000615070400110D8F7809590958E0F9F1FB1
:100970000895FC016150704001900110D8F78095F6
:1009800090958E0F9F1F08950F931F93CF93DF9322
:100990008C01EB018B8181FF1BC082FF0DC02E817A
:1009A0003F818C819D812817390764F4E881F981A2
:1009B0000193F983E88306C0E885F985802F0995BE
:1009C000892B31F48E819F8101969F838E8302C093
:1009D0000FEF1FEFC801DF91CF911F910F91089585
:1009E000FA01AA27283051F1203181F1E8946F9360
:1009F0006E7F6E5F7F4F8F4F9F4FAF4FB1E03ED006
:100A0000B4E03CD0670F781F891F9A1FA11D680FA3
:100A1000791F8A1F911DA11D6A0F711D811D911DD6
:100A2000A11D20D009F468943F912AE0269F11244B
:100A30003019305D3193DEF6CF010895462F4770AF
:100A4000405D4193B3E00FD0C9F7F6CF462F4F700A
:100A5000405D4A3318F0495D31FD4052419302D068
:100A6000A9F7EACFB4E0A69597958795779567950E
:100A7000BA95C9F700976105710508959B01AC010E
:100A80000A2E06945795479537952795BA95C9F735
:100A9000620F731F841F951FA01D08952F923F9210
:100AA0004F925F926F927F928F929F92AF92BF927E
:100AB000CF92DF92EF92FF920F931F93CF93DF932A
:100AC000CDB7DEB7CA1BDB0B0FB6F894DEBF0FBE87
:100AD000CDBF09942A88398848885F846E847D84D4
:100AE0008C849B84AA84B984C884DF80EE80FD80D6
:100AF0000C811B81AA81B981CE0FD11D0FB6F8944C
:0E0B0000DEBF0FBECDBFED010895F894FFCF0C
:100B0E00256400637A79737A637A656E69652E2E31
:100B1E002E0068656C6C6F003738392F3435362AE5
:080B2E003132332D43303D2B21
:00000001FF
