:1000000029C000003AC0000038C0000036C000001F
:1000100034C0000032C0000030C000002EC000001C
:100020002CC000002AC0000028C0000026C000002C
:1000300024C0000022C0000020C000001EC000003C
:100040001CC000001AC0000018C0000016C000004C
:1000500014C0000011241FBECFE5D8E0DEBFCDBF25
:1000600010E0A0E6B0E0E8EFF1E002C005900D92EC
:10007000AE36B107D9F78CD0BDC0C2CF20916A008F
:10008000209522BB6AE070E0A1D0FC01E05AFF4F4E
:1000900080818BBB08956AE070E098D0CB012091FD
:1000A0006B00209522BB6AE070E090D0FC01E05A22
:1000B000FF4F80818BBB089564E670E087D0CB0151
:1000C00020916C00209522BB6AE070E07FD0FC019B
:1000D000E05AFF4F80818BBB089568EE73E076D0C5
:1000E000CB0120916D00209522BB6AE070E06ED0BC
:1000F000FC01E05AFF4F80818BBB08950F931F9343
:10010000CF93DF93EC01BADF00E41CE9C80101974B
:10011000F1F7CA30D10550F488E592E028EC30E0E0
:10012000F9013197F1F70197D9F72DC0CE01B3DF6F
:10013000C8010197F1F7C436D10540F4CE019EDF26
:10014000C8010197F1F7CE01A6DF1AC0CE01B4DFD6
:10015000C8010197F1F783E0C83ED80778F4CE01D3
:100160008DDF00EE1EE2C8010197F1F7CE0193DFAB
:10017000C8010197F1F7CE019FDF02C0CE01ADDFCC
:10018000C8010197F1F7DF91CF911F910F91089569
:100190000F931F93CF93DF938FEF81BB8ABB82BBFB
:1001A000C0E0D0E008EC10E0CE01A8DF12BA88EE83
:1001B00093E0F8013197F1F70197D9F7219687E29B
:1001C000C031D8078CF3C0E0D0E0EECFAA1BBB1B38
:1001D00051E107C0AA1FBB1FA617B70710F0A61B47
:1001E000B70B881F991F5A95A9F780959095BC0168
:0801F000CD010895F894FFCF42
:0E01F8003F065B4F666D7D077F6780402010DD
:00000001FF
