:1000000029C0000042C0000040C000003EC0000007
:100010003CC000003AC0000038C0000037C00000FB
:1000200034C0000032C0000030C000002EC000000C
:100030002CC000002AC0000028C0000026C000001C
:1000400024C0000022C0000020C000001EC000002C
:100050001CC0000011241FBECFE5D8E0DEBFCDBF1D
:1000600010E0A0E6B0E0E2E2F2E002C005900D92FE
:10007000AE36B107D9F710E0AEE6B0E001C01D9290
:10008000A037B107E1F7ACD0CAC0BACF1F920F9228
:100090000FB60F9211242F938F939F9380916E0030
:1000A00090916F00019690936F0080936E00805145
:1000B000974221F410926F0010926E009F918F91E1
:1000C0002F910F900FBE0F901F90189520916A00EE
:1000D000209522BB6AE070E08ED0FC01E05AFF4F11
:1000E00080818BBB08956AE070E085D0CB012091C0
:1000F0006B00209522BB6AE070E07DD0FC01E05AE5
:10010000FF4F80818BBB089564E670E074D0CB0113
:1001100020916C00209522BB6AE070E06CD0FC015D
:10012000E05AFF4F80818BBB089568EE73E063D087
:10013000CB0120916D00209522BB6AE070E05BD07E
:10014000FC01E05AFF4F80818BBB08950F931F93F2
:10015000CF93DF93EC01BADF00E41CE9C8010197FB
:10016000F1F7CA30D10550F488E592E028EC30E090
:10017000F9013197F1F70197D9F72DC0CE01B3DF1F
:10018000C8010197F1F7C436D10540F4CE019EDFD6
:10019000C8010197F1F7CE01A6DF1AC0CE01B4DF86
:1001A000C8010197F1F783E0C83ED80778F4CE0183
:1001B0008DDF00EE1EE2C8010197F1F7CE0193DF5B
:1001C000C8010197F1F7CE019FDF02C0CE01ADDF7C
:1001D000C8010197F1F7DF91CF911F910F91089519
:1001E0008FEF81BB8ABB82BB789480916E00909127
:1001F0006F00ACDFFACFAA1BBB1B51E107C0AA1FDF
:10020000BB1FA617B70710F0A61BB70B881F991FB7
:100210005A95A9F780959095BC01CD010895F89461
:02022000FFCF0E
:0E0222003F065B4F666D7D077F6780402010B2
:00000001FF
