:1000000029C000003AC0000038C0000036C000001F
:1000100034C0000032C0000030C000002EC000001C
:100020002CC000002AC0000028C0000026C000002C
:1000300024C0000022C0000020C000001EC000003C
:100040001CC000001AC0000018C0000016C000004C
:1000500014C0000011241FBECFE5D8E0DEBFCDBF25
:1000600010E0A0E6B0E0E0EEF0E002C005900D92F6
:10007000AA36B107D9F702D031C0C2CF1F93DF93A0
:10008000CF93CDB7DEB72A970FB6F894DEBF0FBE79
:10009000CDBF8FEF81BB8ABBDE011196E0E6F0E0B9
:1000A0008AE001900D928150E1F71FE7BE016F5F7A
:1000B0007F4F48EC50E09E01255F3F4F12BBDB01B4
:1000C0008C918BBB88E893E1FA013197F1F70197A6
:1000D000D9F71196A217B30799F7F0CFF894FFCF8D
:0A00E0003F065B4F666D7D077F67EA
:00000001FF
