:1000000029C0000042C0000040C000003EC0000007
:100010003CC000003AC0000038C0000037C00000FB
:1000200034C0000032C0000030C000002EC000000C
:100030002CC000002AC0000028C0000026C000001C
:1000400024C0000022C0000020C000001EC000002C
:100050001CC0000011241FBECFE5D8E0DEBFCDBF1D
:1000600010E0A0E6B0E0E4EEF1E002C005900D92F1
:10007000AE36B107D9F710E0AEE6B0E001C01D9290
:10008000A237B107E1F787D0ABC0BACF1F920F926A
:100090000FB60F9211248F939F9380916E009091D1
:1000A0006F00019690936F0080936E00CC9769F477
:1000B00010926F0010926E0080917000909171000C
:1000C000019690937100809370009F918F910F9093
:1000D0000FBE0F901F901895EF92FF920F931F93F2
:1000E00080916A00809582BB00916E0010916F0034
:1000F000C8016AE070E060D020E630E0F901E80F66
:10010000F91F80818BBB80E4E82E8CE9F82EC701B3
:100110000197F1F780916B00809582BBC8016AE07E
:1001200070E04AD0CB016AE070E046D0F901E80FF8
:10013000F91F80818BBBC7010197F1F780916C009B
:10014000809582BB0091700010917100C8016AE037
:1001500070E032D0F901E80FF91F80818BBBC70135
:100160000197F1F780916D00809582BBC8016AE02C
:1001700070E022D0CB016AE070E01ED0280F391F5A
:10018000F90180818BBBC7010197F1F71F910F9196
:10019000FF90EF9008958FEF81BB8ABB82BB88E010
:1001A0008FBD84E08EBD82E19AE79BBD8ABD80E170
:1001B00089BF789491DFFECFAA1BBB1B51E107C01A
:1001C000AA1FBB1FA617B70710F0A61BB70B881FE7
:1001D000991F5A95A9F780959095BC01CD01089576
:0401E000F894FFCFC1
:0E01E4003F065B4F666D7D077F6780402010F1
:00000001FF
