:1000000029C0000042C0000040C000003EC0000007
:100010003CC000003AC0000038C0000036C00000FC
:1000200034C0000032C0000030C000002EC000000C
:100030002CC000002AC0000028C0000026C000001C
:1000400024C0000022C0000020C000001EC000002C
:100050001CC0000011241FBECFE5D8E0DEBFCDBF1D
:1000600010E0A0E6B0E0ECEEF1E002C005900D92E9
:10007000AE36B107D9F710E0AEE6B0E001C01D9290
:10008000A237B107E1F761D0AFC0BACFEF92FF92CC
:100090000F931F9380916A00809582BB00916E0040
:1000A00010916F00C8016AE070E08AD020E630E06D
:1000B000F901E80FF91F80818BBB80E4E82E8CE901
:1000C000F82EC7010197F1F780916B00809582BBF4
:1000D000C8016AE070E074D0CB016AE070E070D0D3
:1000E000F901E80FF91F80818BBBC7010197F1F778
:1000F00080916C00809582BB00917000109171001E
:10010000C8016AE070E05CD0F901E80FF91F808156
:100110008BBBC7010197F1F780916D00809582BB81
:10012000C8016AE070E04CD0CB016AE070E048D0D2
:10013000280F391FF90180818BBBC7010197F1F7A7
:100140001F910F91FF90EF900895EF92FF920F9300
:100150001F93CF93DF938FEF81BB8ABB82BB00E0FD
:1001600010E098ECE92EF12C1CC010936F00009366
:100170006E00C0E0D0E060916E0070916F008091E1
:1001800070009091710082DF2196CC30D10599F7F3
:1001900080E991E0F7013197F1F70197D9F70F5F07
:1001A0001F4F0C3311050CF380917000909171007A
:1001B0000196909371008093700000E010E0F1CF01
:1001C000AA1BBB1B51E107C0AA1FBB1FA617B7077D
:1001D00010F0A61BB70B881F991F5A95A9F7809599
:0C01E0009095BC01CD010895F894FFCF6C
:0E01EC003F065B4F666D7D077F6780402010E9
:00000001FF
