:1000000029C000002FC000002DC000002BC0000040
:1000100029C0000027C0000025C0000023C0000048
:1000200021C000001FC000001DC000001BC0000058
:1000300019C0000017C0000015C0000013C0000068
:1000400011C000000FC000000DC000000BC0000078
:1000500009C0000011241FBECFE5D8E0DEBFCDBF30
:1000600009D010C0CDCF989B02C08FEF82BB989B68
:1000700012BA0895A098A49AA898AC9A8FEF81BB61
:08008000F2DFFECFF894FFCF80
:00000001FF
